101000000002016197817612500CONV PADRAO                   0001 01012019R$    000001  CONVENIO PADRAO                                             2000001
60000026924812000007442241020198111307PAD                                                      102019FAT0102019535760320712112019000000000001733000002
20000026924812000007442241020197411307PAD98LANCAMENTO ENVIADO ACEITO               26114601052891918 01092019                                   000003
60000024586472000003721241020198111307PAD                                                      112019FAT0102019539699162427112019000000000001685000004
20000024586472000003721241020197411307PAD98LANCAMENTO ENVIADO ACEITO               06983869931437987 01062019                                   000005
20000031001447000000000241020197711307PAD26CONVENIO ENCERRADO A PEDIDO DO                            0110201924102019                           000006
60000031001447000003721241020198111307PAD                                                      102019FAT0102019535754868815112019000000000008611000007
60000031001447000003721241020199011307PAD                                                      102019FAT0102019535754868815112019000000000008611000008
900000029768                                                                                                                                    000009